{
  "contractName": "medicalRecords",
  "abi": [
    {
      "inputs": [],
      "stateMutability": "nonpayable",
      "type": "constructor"
    },
    {
      "anonymous": false,
      "inputs": [
        {
          "indexed": false,
          "internalType": "string",
          "name": "name",
          "type": "string"
        },
        {
          "indexed": false,
          "internalType": "uint256",
          "name": "age",
          "type": "uint256"
        },
        {
          "indexed": false,
          "internalType": "string",
          "name": "description",
          "type": "string"
        }
      ],
      "name": "NewPerson",
      "type": "event"
    },
    {
      "inputs": [
        {
          "internalType": "uint256",
          "name": "",
          "type": "uint256"
        }
      ],
      "name": "PersonMedical",
      "outputs": [
        {
          "internalType": "string",
          "name": "name",
          "type": "string"
        },
        {
          "internalType": "uint256",
          "name": "age",
          "type": "uint256"
        },
        {
          "internalType": "string",
          "name": "description",
          "type": "string"
        }
      ],
      "stateMutability": "view",
      "type": "function",
      "constant": true
    },
    {
      "inputs": [],
      "name": "idPerson",
      "outputs": [
        {
          "internalType": "uint256",
          "name": "",
          "type": "uint256"
        }
      ],
      "stateMutability": "view",
      "type": "function",
      "constant": true
    },
    {
      "inputs": [
        {
          "internalType": "string",
          "name": "_name",
          "type": "string"
        },
        {
          "internalType": "uint256",
          "name": "_age",
          "type": "uint256"
        },
        {
          "internalType": "string",
          "name": "_description",
          "type": "string"
        }
      ],
      "name": "createPatient",
      "outputs": [],
      "stateMutability": "nonpayable",
      "type": "function"
    }
  ],
  "bytecode": "0x6080604052600080553480156200001557600080fd5b50620000946040518060400160405280600481526020017f456d65720000000000000000000000000000000000000000000000000000000081525060156040518060400160405280600981526020017f476f6f64206c69666500000000000000000000000000000000000000000000008152506200009a60201b60201c565b62000409565b600080815480929190620000ae9062000258565b919050555060405180606001604052808481526020018381526020018281525060016000805481526020019081526020016000206000820151816000019080519060200190620001009291906200016f565b50602082015181600101556040820151816002019080519060200190620001299291906200016f565b509050507fe3c8cb56c3fdb0e1ad6c1a697e8420c58b9d993f3ab30ed1c8452d11f9263c7a83838360405162000162939291906200035a565b60405180910390a1505050565b8280546200017d90620003d4565b90600052602060002090601f016020900481019282620001a15760008555620001ed565b82601f10620001bc57805160ff1916838001178555620001ed565b82800160010185558215620001ed579182015b82811115620001ec578251825591602001919060010190620001cf565b5b509050620001fc919062000200565b5090565b5b808211156200021b57600081600090555060010162000201565b5090565b7f4e487b7100000000000000000000000000000000000000000000000000000000600052601160045260246000fd5b6000819050919050565b600062000265826200024e565b91507fffffffffffffffffffffffffffffffffffffffffffffffffffffffffffffffff82036200029a57620002996200021f565b5b600182019050919050565b600081519050919050565b600082825260208201905092915050565b60005b83811015620002e1578082015181840152602081019050620002c4565b83811115620002f1576000848401525b50505050565b6000601f19601f8301169050919050565b60006200031582620002a5565b620003218185620002b0565b935062000333818560208601620002c1565b6200033e81620002f7565b840191505092915050565b62000354816200024e565b82525050565b6000606082019050818103600083015262000376818662000308565b905062000387602083018562000349565b81810360408301526200039b818462000308565b9050949350505050565b7f4e487b7100000000000000000000000000000000000000000000000000000000600052602260045260246000fd5b60006002820490506001821680620003ed57607f821691505b602082108103620004035762000402620003a5565b5b50919050565b6107ae80620004196000396000f3fe608060405234801561001057600080fd5b50600436106100415760003560e01c8063a70b43ea14610046578063aa573e3e14610064578063d4f52b4e14610080575b600080fd5b61004e6100b2565b60405161005b919061037b565b60405180910390f35b61007e6004803603810190610079919061051c565b6100b8565b005b61009a600480360381019061009591906105a7565b610185565b6040516100a99392919061065c565b60405180910390f35b60005481565b6000808154809291906100ca906106d0565b91905055506040518060600160405280848152602001838152602001828152506001600080548152602001908152602001600020600082015181600001908051906020019061011a9291906102bf565b506020820151816001015560408201518160020190805190602001906101419291906102bf565b509050507fe3c8cb56c3fdb0e1ad6c1a697e8420c58b9d993f3ab30ed1c8452d11f9263c7a8383836040516101789392919061065c565b60405180910390a1505050565b60016020528060005260406000206000915090508060000180546101a890610747565b80601f01602080910402602001604051908101604052809291908181526020018280546101d490610747565b80156102215780601f106101f657610100808354040283529160200191610221565b820191906000526020600020905b81548152906001019060200180831161020457829003601f168201915b50505050509080600101549080600201805461023c90610747565b80601f016020809104026020016040519081016040528092919081815260200182805461026890610747565b80156102b55780601f1061028a576101008083540402835291602001916102b5565b820191906000526020600020905b81548152906001019060200180831161029857829003601f168201915b5050505050905083565b8280546102cb90610747565b90600052602060002090601f0160209004810192826102ed5760008555610334565b82601f1061030657805160ff1916838001178555610334565b82800160010185558215610334579182015b82811115610333578251825591602001919060010190610318565b5b5090506103419190610345565b5090565b5b8082111561035e576000816000905550600101610346565b5090565b6000819050919050565b61037581610362565b82525050565b6000602082019050610390600083018461036c565b92915050565b6000604051905090565b600080fd5b600080fd5b600080fd5b600080fd5b6000601f19601f8301169050919050565b7f4e487b7100000000000000000000000000000000000000000000000000000000600052604160045260246000fd5b6103fd826103b4565b810181811067ffffffffffffffff8211171561041c5761041b6103c5565b5b80604052505050565b600061042f610396565b905061043b82826103f4565b919050565b600067ffffffffffffffff82111561045b5761045a6103c5565b5b610464826103b4565b9050602081019050919050565b82818337600083830152505050565b600061049361048e84610440565b610425565b9050828152602081018484840111156104af576104ae6103af565b5b6104ba848285610471565b509392505050565b600082601f8301126104d7576104d66103aa565b5b81356104e7848260208601610480565b91505092915050565b6104f981610362565b811461050457600080fd5b50565b600081359050610516816104f0565b92915050565b600080600060608486031215610535576105346103a0565b5b600084013567ffffffffffffffff811115610553576105526103a5565b5b61055f868287016104c2565b935050602061057086828701610507565b925050604084013567ffffffffffffffff811115610591576105906103a5565b5b61059d868287016104c2565b9150509250925092565b6000602082840312156105bd576105bc6103a0565b5b60006105cb84828501610507565b91505092915050565b600081519050919050565b600082825260208201905092915050565b60005b8381101561060e5780820151818401526020810190506105f3565b8381111561061d576000848401525b50505050565b600061062e826105d4565b61063881856105df565b93506106488185602086016105f0565b610651816103b4565b840191505092915050565b600060608201905081810360008301526106768186610623565b9050610685602083018561036c565b81810360408301526106978184610623565b9050949350505050565b7f4e487b7100000000000000000000000000000000000000000000000000000000600052601160045260246000fd5b60006106db82610362565b91507fffffffffffffffffffffffffffffffffffffffffffffffffffffffffffffffff820361070d5761070c6106a1565b5b600182019050919050565b7f4e487b7100000000000000000000000000000000000000000000000000000000600052602260045260246000fd5b6000600282049050600182168061075f57607f821691505b60208210810361077257610771610718565b5b5091905056fea264697066735822122012bed8fa5f7f3caed2c72a47278e6aa8500a75af5049f1117c3c0895ec4d5edc64736f6c634300080d0033",
  "immutableReferences": {},
  "source": "// SPDX-License-Identifier: MIT\r\npragma solidity ^0.8.13;\r\n\r\ncontract medicalRecords {\r\n    uint256 public idPerson = 0;\r\n\r\n    // Creating a new user with the constructor\r\n\r\n    constructor() {\r\n        createPatient(\"Emer\", 21, \"Good life\");\r\n    }\r\n\r\n    // let's return the value\r\n    event NewPerson(string name, uint256 age, string description);\r\n\r\n    // The person's structure has been created\r\n    struct Person {\r\n        string name;\r\n        uint256 age;\r\n        string description;\r\n    }\r\n\r\n    mapping(uint256 => Person) public PersonMedical;\r\n\r\n    //event()\r\n\r\n    function createPatient(\r\n        string memory _name,\r\n        uint256 _age,\r\n        string memory _description\r\n    ) public {\r\n        idPerson++;\r\n        PersonMedical[idPerson] = Person(_name, _age, _description);\r\n        emit NewPerson(_name, _age, _description);\r\n    }\r\n}\r\n",
  "sourcePath": "D:\\Curso-Emer\\Desarrollo_Solidity\\Cursos-Solidity\\Pruebas-Javascript\\Test-Automatizado-truffle\\Test-2\\contracts\\medicalRecords.sol",
  "compiler": {
    "name": "solc",
    "version": "0.8.13+commit.abaa5c0e.Emscripten.clang"
  },
  "schemaVersion": "3.4.11",
  "updatedAt": "2023-03-03T03:51:43.274Z",
  "networkType": "ethereum",
  "devdoc": {
    "kind": "dev",
    "methods": {},
    "version": 1
  },
  "userdoc": {
    "kind": "user",
    "methods": {},
    "version": 1
  }
}