{
  "contractName": "medicalRecords",
  "abi": [
    {
      "inputs": [
        {
          "internalType": "string",
          "name": "_name",
          "type": "string"
        },
        {
          "internalType": "uint256",
          "name": "_age",
          "type": "uint256"
        },
        {
          "internalType": "string",
          "name": "_description",
          "type": "string"
        }
      ],
      "name": "createPatient",
      "outputs": [],
      "stateMutability": "nonpayable",
      "type": "function"
    }
  ],
  "bytecode": "0x60806040526000805534801561001457600080fd5b506104a9806100246000396000f3fe608060405234801561001057600080fd5b506004361061002b5760003560e01c8063aa573e3e14610030575b600080fd5b61004a60048036038101906100459190610311565b61004c565b005b60008081548092919061005e906103cb565b9190505550604051806060016040528084815260200183815260200182815250600160008054815260200190815260200160002060008201518160000190805190602001906100ae9291906100de565b506020820151816001015560408201518160020190805190602001906100d59291906100de565b50905050505050565b8280546100ea90610442565b90600052602060002090601f01602090048101928261010c5760008555610153565b82601f1061012557805160ff1916838001178555610153565b82800160010185558215610153579182015b82811115610152578251825591602001919060010190610137565b5b5090506101609190610164565b5090565b5b8082111561017d576000816000905550600101610165565b5090565b6000604051905090565b600080fd5b600080fd5b600080fd5b600080fd5b6000601f19601f8301169050919050565b7f4e487b7100000000000000000000000000000000000000000000000000000000600052604160045260246000fd5b6101e88261019f565b810181811067ffffffffffffffff82111715610207576102066101b0565b5b80604052505050565b600061021a610181565b905061022682826101df565b919050565b600067ffffffffffffffff821115610246576102456101b0565b5b61024f8261019f565b9050602081019050919050565b82818337600083830152505050565b600061027e6102798461022b565b610210565b90508281526020810184848401111561029a5761029961019a565b5b6102a584828561025c565b509392505050565b600082601f8301126102c2576102c1610195565b5b81356102d284826020860161026b565b91505092915050565b6000819050919050565b6102ee816102db565b81146102f957600080fd5b50565b60008135905061030b816102e5565b92915050565b60008060006060848603121561032a5761032961018b565b5b600084013567ffffffffffffffff81111561034857610347610190565b5b610354868287016102ad565b9350506020610365868287016102fc565b925050604084013567ffffffffffffffff81111561038657610385610190565b5b610392868287016102ad565b9150509250925092565b7f4e487b7100000000000000000000000000000000000000000000000000000000600052601160045260246000fd5b60006103d6826102db565b91507fffffffffffffffffffffffffffffffffffffffffffffffffffffffffffffffff82036104085761040761039c565b5b600182019050919050565b7f4e487b7100000000000000000000000000000000000000000000000000000000600052602260045260246000fd5b6000600282049050600182168061045a57607f821691505b60208210810361046d5761046c610413565b5b5091905056fea2646970667358221220eabcab39dd7415f8cf5e1998e523b50c77c268701f4087d4057f233268bffb5b64736f6c634300080d0033",
  "immutableReferences": {},
  "source": "// SPDX-License-Identifier: MIT\r\npragma solidity ^0.8.13;\r\n\r\ncontract medicalRecords {\r\n    uint256 idPerson = 0;\r\n\r\n    struct Person {\r\n        string name;\r\n        uint256 age;\r\n        string description;\r\n    }\r\n\r\n    mapping(uint256 => Person) PersonMedical;\r\n\r\n    //event()\r\n\r\n    function createPatient(\r\n        string memory _name,\r\n        uint256 _age,\r\n        string memory _description\r\n    ) public {\r\n        idPerson++;\r\n        PersonMedical[idPerson] = Person(_name, _age, _description);\r\n    }\r\n}\r\n",
  "sourcePath": "D:\\Curso-Emer\\Desarrollo_Solidity\\Cursos-Solidity\\Pruebas-Javascript\\Test-Automatizado-truffle\\Test-2\\contracts\\medicalRecords.sol",
  "compiler": {
    "name": "solc",
    "version": "0.8.13+commit.abaa5c0e.Emscripten.clang"
  },
  "schemaVersion": "3.4.11",
  "updatedAt": "2023-02-25T02:43:28.043Z",
  "networkType": "ethereum",
  "devdoc": {
    "kind": "dev",
    "methods": {},
    "version": 1
  },
  "userdoc": {
    "kind": "user",
    "methods": {},
    "version": 1
  }
}